S0150000426C7565746F6F74685F6361722E73726563C4
S11300000C942A000C943C000C943C000C943C008E
S11300100C943C000C943C000C943C000C943C006C
S11300200C943C000C943C000C943C000C94E100B7
S11300300C943C000C943C000C943C000C943C004C
S11300400C943C000C943C000C943C000C943C003C
S11300500C943C0011241FBECFE5D4E0DEBFCDBF1D
S113006020E0A0E6B0E001C01D92A236B207E1F79D
S11300700E946B010C9421030C9400004F925F9238
S11300806F927F928F929F92AF92BF92CF92DF92A4
S1130090EF92FF920F931F9329013A0167017801B0
S11300A026E636E646E65FE30E9490024B015C01D9
S11300B020E030E048EC52E4C701B6010E94990107
S11300C06B017C019B01AC01C501B4010E9490024B
S11300D04B015C0126E636E646E65FE3C301B20166
S11300E00E9490029B01AC01C701B6010E949002DC
S11300F06B017C0120E030E0A901C501B4010E943C
S11301008B0288237CF0AC9AAD9820E030E048E480
S113011053E4C501B4010E9490020E940B0279BD10
S113012068BD0FC0AC98AD9AC501B401905820E0E9
S113013030E048E453E40E9490020E940B0279BD2F
S113014068BD20E030E0A901C701B6010E948B021E
S11301508823A4F0939A969820E030E04FE753E484
S1130160C701B6010E94900220E030E048EC52E45E
S11301700E9499010E940B0263BD14C09398969A41
S1130180C701B601905820E030E04FE753E40E94E5
S1130190900220E030E048EC52E40E9499010E9471
S11301A00B0263BD1F910F91FF90EF90DF90CF90F2
S11301B0BF90AF909F908F907F906F905F904F9083
S11301C008951F920F920FB60F921124EF92FF928F
S11301D00F931F932F933F934F935F936F937F934B
S11301E08F939F93AF93BF93EF93FF938CB18CB98D
S11301F0813319F08233A1F022C081E090E0909322
S1130200610080936000E12CF12C08EC12E420E002
S113021030E048E452E4CA01B9010E943E000FC034
S113022082E090E09093610080936000E12CF12CD7
S11302308701A8019701C801B7010E943E00FF9100
S1130240EF91BF91AF919F918F917F916F915F914A
S11302504F913F912F911F910F91FF90EF900F902D
S11302600FBE0F901F90189580E487B985E886B972
S113027081EF87BB8FEF88BB14BA85BB8BEF81BB43
S113028084B3806384BB85B38F7C806185BB81B379
S1130290886481BB82B3877B886082BB80E58DB92B
S11302A081E08EB98CE083BF8EE38CBF82E089BF8E
S11302B082EA8FBD8AE18EBD80E29EE497BD86BD51
S11302C08FE685BD13BC789485B78A6085BF8BB7EC
S11302D080648BBF08950E94340110BC87E689B9FD
S11302E086E880BD88E98AB978948091600090910D
S11302F061008130910559F4E12CF12C08E412E4F9
S1130300A8019701C801B7010E943E0010C00297DE
S113031071F4E12CF12C8701A8019701C801B70100
S11303200E943E0004C08F5F8038E9F7DECF80E290
S1130330FACF0E94AD010C9451020E944A0258F077
S11303400E94430240F029F45F3F29F00C943A02E2
S113035051110C9485020C9440020E94620268F3CD
S11303609923B1F3552391F3951B550BBB27AA276A
S113037062177307840738F09F5F5F4F220F331FA4
S1130380441FAA1FA9F335D00E2E3AF0E0E832D06C
S113039091505040E695001CCAF72BD0FE2F29D06F
S11303A0660F771F881FBB1F261737074807AB0741
S11303B0B0E809F0BB0B802DBF01FF2793585F4FB6
S11303C03AF09E3F510578F00C943A020C94850261
S11303D05F3FE4F3983ED4F3869577956795B79598
S11303E0F7959F5FC9F7880F911D9695879597F9A3
S11303F00895E1E0660F771F881FBB1F621773071C
S11304008407BA0720F0621B730B840BBA0BEE1F30
S113041088F7E09508950E946A0288F09F5798F043
S1130420B92F9927B751B0F0E1F0660F771F881FF5
S1130430991F1AF0BA95C9F714C0B13091F00E940F
S11304408402B1E008950C948402672F782F8827E2
S1130450B85F39F0B93FCCF3869577956795B39536
S1130460D9F73EF490958095709561957F4F8F4FA5
S11304709F4F089597F99F6780E870E060E00895C2
S11304809FEF80EC089500240A94161617061806A8
S11304900906089500240A94121613061406050684
S11304A00895092E0394000C11F4882352F0BB0F15
S11304B040F4BF2B11F460FF04C06F5F7F4F8F4F78
S11304C09F4F089557FD9058440F551F59F05F3FB3
S11304D071F04795880F97FB991F61F09F3F79F062
S11304E087950895121613061406551FF2CF4695E4
S11304F0F1DF08C0161617061806991FF1CF869566
S11305007105610508940895E894BB276627772749
S1130510CB0197F908950E94FD0208F48FEF089526
S11305200E94A3020C9451020E94430238F00E94DC
S11305304A0220F0952311F00C943A020C944002E4
S113054011240C9485020E94620270F3959FC1F3FA
S1130550950F50E0551F629FF001729FBB27F00D6D
S1130560B11D639FAA27F00DB11DAA1F649F6627C2
S1130570B00DA11D661F829F2227B00DA11D621F11
S1130580739FB00DA11D621F839FA00D611D221FCB
S1130590749F3327A00D611D231F849F600D211DAF
S11305A0822F762F6A2F11249F5750409AF0F1F032
S11305B088234AF0EE0FFF1FBB1F661F771F881F9B
S11305C091505040A9F79E3F510580F00C943A0297
S11305D00C9485025F3FE4F3983ED4F386957795B7
S11305E06795B795F795E7959F5FC1F7FE2B880F41
S11305F0911D9695879597F90895990F0008550FC1
S1130600AA0BE0E8FEEF16161706E807F907C0F094
S113061012161306E407F50798F0621B730B840B9C
S1130620950B39F40A2661F0232B242B252B21F476
S113063008950A2609F4A140A6958FEF811D811D16
S10906400895F894FFCFB9
S9030000FC
