S0150000426C7565746F6F74685F6361722E73726563C4
S11300000C942A000C943C000C943C000C943C008E
S11300100C943C000C943C000C943C000C943C006C
S11300200C943C000C943C000C943C000C946D002B
S11300300C943C000C943C000C943C000C943C004C
S11300400C943C000C943C000C943C000C943C003C
S11300500C943C0011241FBECFE5D4E0DEBFCDBF1D
S113006020E0A0E6B0E001C01D92A236B207E1F79D
S11300700E9442000C94A7000C9400005D9BFECFEC
S11300808CB9089511BA10BC83E389B91BB886E80A
S113009080BD88E98AB98FEF8ABB8BBB789432E044
S11300A021E08091600090916100019741F48BB34D
S11300B082278BBB1092610010926000F2CF809176
S11300C0600090916100029761F78BB383278BBB2B
S11300D01092610010926000E4CF1F920F920FB64D
S11300E00F9211242F933F934F935F936F937F93BA
S11300F08F939F93AF93BF93CF93EF93FF93CCB121
S11301008C2F0E943E00C13319F0C23341F00DC060
S113011081E090E0909361008093600006C082E0EB
S113012090E09093610080936000FF91EF91CF91F4
S1130130BF91AF919F918F917F916F915F914F91FB
S11301403F912F910F900FBE0F901F901895F89428
S1050150FFCFDB
S9030000FC
